{
    "contractName": "TimesheetContract",
    "abi": [
        {
            "anonymous": false,
            "inputs": [
                {
                    "indexed": false,
                    "internalType": "uint256",
                    "name": "timesheetTimestamp",
                    "type": "uint256"
                },
                {
                    "indexed": false,
                    "internalType": "address",
                    "name": "worker",
                    "type": "address"
                },
                {
                    "indexed": false,
                    "internalType": "string",
                    "name": "description",
                    "type": "string"
                }
            ],
            "name": "TimesheetAdded",
            "type": "event"
        },
        {
            "anonymous": false,
            "inputs": [
                {
                    "indexed": false,
                    "internalType": "uint256",
                    "name": "timesheetTimestamp",
                    "type": "uint256"
                },
                {
                    "indexed": false,
                    "internalType": "string",
                    "name": "workerName",
                    "type": "string"
                },
                {
                    "indexed": false,
                    "internalType": "string",
                    "name": "description",
                    "type": "string"
                }
            ],
            "name": "TimesheetWithWorkerNameAdded",
            "type": "event"
        },
        {
            "inputs": [
                {
                    "internalType": "string",
                    "name": "_description",
                    "type": "string"
                }
            ],
            "name": "addTimesheetWithAccount",
            "outputs": [],
            "stateMutability": "nonpayable",
            "type": "function"
        },
        {
            "inputs": [
                {
                    "internalType": "string",
                    "name": "_workerName",
                    "type": "string"
                },
                {
                    "internalType": "string",
                    "name": "_description",
                    "type": "string"
                }
            ],
            "name": "addTimesheetWithWorkerName",
            "outputs": [],
            "stateMutability": "nonpayable",
            "type": "function"
        },
        {
            "inputs": [
                {
                    "internalType": "uint256",
                    "name": "index",
                    "type": "uint256"
                }
            ],
            "name": "getTimesheet",
            "outputs": [
                {
                    "internalType": "uint256",
                    "name": "",
                    "type": "uint256"
                },
                {
                    "internalType": "address",
                    "name": "",
                    "type": "address"
                },
                {
                    "internalType": "string",
                    "name": "",
                    "type": "string"
                }
            ],
            "stateMutability": "view",
            "type": "function"
        },
        {
            "inputs": [],
            "name": "getTimesheetCount",
            "outputs": [
                {
                    "internalType": "uint256",
                    "name": "",
                    "type": "uint256"
                }
            ],
            "stateMutability": "view",
            "type": "function"
        },
        {
            "inputs": [
                {
                    "internalType": "uint256",
                    "name": "index",
                    "type": "uint256"
                }
            ],
            "name": "getTimesheetWithWorkerName",
            "outputs": [
                {
                    "internalType": "uint256",
                    "name": "",
                    "type": "uint256"
                },
                {
                    "internalType": "string",
                    "name": "",
                    "type": "string"
                },
                {
                    "internalType": "string",
                    "name": "",
                    "type": "string"
                }
            ],
            "stateMutability": "view",
            "type": "function"
        },
        {
            "inputs": [],
            "name": "getTimesheetWithWorkerNameCount",
            "outputs": [
                {
                    "internalType": "uint256",
                    "name": "",
                    "type": "uint256"
                }
            ],
            "stateMutability": "view",
            "type": "function"
        },
        {
            "inputs": [
                {
                    "internalType": "uint256",
                    "name": "",
                    "type": "uint256"
                }
            ],
            "name": "timesheets",
            "outputs": [
                {
                    "internalType": "uint256",
                    "name": "timesheetTimestamp",
                    "type": "uint256"
                },
                {
                    "internalType": "address",
                    "name": "workerAddress",
                    "type": "address"
                },
                {
                    "internalType": "string",
                    "name": "description",
                    "type": "string"
                }
            ],
            "stateMutability": "view",
            "type": "function"
        },
        {
            "inputs": [
                {
                    "internalType": "uint256",
                    "name": "",
                    "type": "uint256"
                }
            ],
            "name": "timesheetsWithWorkerName",
            "outputs": [
                {
                    "internalType": "uint256",
                    "name": "timesheetTimestamp",
                    "type": "uint256"
                },
                {
                    "internalType": "string",
                    "name": "workerName",
                    "type": "string"
                },
                {
                    "internalType": "string",
                    "name": "description",
                    "type": "string"
                }
            ],
            "stateMutability": "view",
            "type": "function"
        }
    ],
    "bytecode": "608060405234801561000f575f80fd5b50610acb8061001d5f395ff3fe608060405234801561000f575f80fd5b5060043610610085575f3560e01c80637fb32127116100585780637fb32127146100fc57806392e5ed3314610111578063ec82505514610123578063f72f5c2a14610136575f80fd5b8063018e5c85146100895780630fb188f9146100b45780632f576459146100c75780635c2af4f2146100e9575b5f80fd5b61009c610097366004610748565b61013d565b6040516100ab939291906107a2565b60405180910390f35b61009c6100c2366004610748565b610301565b6100da6100d5366004610748565b610441565b6040516100ab939291906107d6565b6100da6100f7366004610748565b610484565b61010f61010a3660046108a5565b610542565b005b6001545b6040519081526020016100ab565b61010f610131366004610905565b61062f565b5f54610115565b5f60608060018054905084106101915760405162461bcd60e51b815260206004820152601460248201527324b73232bc1037baba1037b3103137bab732399760611b60448201526064015b60405180910390fd5b5f600185815481106101a5576101a561093f565b905f5260205f2090600302016040518060600160405290815f82015481526020016001820180546101d590610953565b80601f016020809104026020016040519081016040528092919081815260200182805461020190610953565b801561024c5780601f106102235761010080835404028352916020019161024c565b820191905f5260205f20905b81548152906001019060200180831161022f57829003601f168201915b5050505050815260200160028201805461026590610953565b80601f016020809104026020016040519081016040528092919081815260200182805461029190610953565b80156102dc5780601f106102b3576101008083540402835291602001916102dc565b820191905f5260205f20905b8154815290600101906020018083116102bf57829003601f168201915b5050509190925250508151602083015160409093015190989297509550909350505050565b60018181548110610310575f80fd5b5f918252602090912060039091020180546001820180549193509061033490610953565b80601f016020809104026020016040519081016040528092919081815260200182805461036090610953565b80156103ab5780601f10610382576101008083540402835291602001916103ab565b820191905f5260205f20905b81548152906001019060200180831161038e57829003601f168201915b5050505050908060020180546103c090610953565b80601f01602080910402602001604051908101604052809291908181526020018280546103ec90610953565b80156104375780601f1061040e57610100808354040283529160200191610437565b820191905f5260205f20905b81548152906001019060200180831161041a57829003601f168201915b5050505050905083565b5f818154811061044f575f80fd5b5f9182526020909120600390910201805460018201546002830180549294506001600160a01b0390911692916103c090610953565b5f8054819060609084106104d15760405162461bcd60e51b815260206004820152601460248201527324b73232bc1037baba1037b3103137bab732399760611b6044820152606401610188565b5f8085815481106104e4576104e461093f565b905f5260205f2090600302016040518060600160405290815f8201548152602001600182015f9054906101000a90046001600160a01b03166001600160a01b03166001600160a01b0316815260200160028201805461026590610953565b60408051606081018252428152602081018481529181018390526001805480820182555f91909152815160039091027fb10e2d527612073b26eecdfd717e6a320cf44b4afac2b0732d9fcbe2b7fa0cf681019182559251919283927fb10e2d527612073b26eecdfd717e6a320cf44b4afac2b0732d9fcbe2b7fa0cf7909101906105cc90826109d9565b50604082015160028201906105e190826109d9565b5050507faf8d1d92059075aedb4a11cf34994c4cfb75696758b50f5b046fee50f8881fe0815f015182602001518360400151604051610622939291906107a2565b60405180910390a1505050565b6040805160608101825242815233602082019081529181018381525f805460018101825590805282517f290decd9548b62a8d60345a988386fc84ba6bc95484008f6362f93160ef3e563600390920291820190815593517f290decd9548b62a8d60345a988386fc84ba6bc95484008f6362f93160ef3e564820180546001600160a01b0319166001600160a01b0390921691909117905590519192839290917f290decd9548b62a8d60345a988386fc84ba6bc95484008f6362f93160ef3e56501906106fb90826109d9565b5050507fb777df12830a22c19ff91c94423d231463c7ab8da4f21bb5e3cde6a59e4a1b31815f01518260200151836040015160405161073c939291906107d6565b60405180910390a15050565b5f60208284031215610758575f80fd5b5035919050565b5f81518084525f5b8181101561078357602081850181015186830182015201610767565b505f602082860101526020601f19601f83011685010191505092915050565b838152606060208201525f6107ba606083018561075f565b82810360408401526107cc818561075f565b9695505050505050565b8381526001600160a01b03831660208201526060604082018190525f906107ff9083018461075f565b95945050505050565b634e487b7160e01b5f52604160045260245ffd5b5f82601f83011261082b575f80fd5b813567ffffffffffffffff8082111561084657610846610808565b604051601f8301601f19908116603f0116810190828211818310171561086e5761086e610808565b81604052838152866020858801011115610886575f80fd5b836020870160208301375f602085830101528094505050505092915050565b5f80604083850312156108b6575f80fd5b823567ffffffffffffffff808211156108cd575f80fd5b6108d98683870161081c565b935060208501359150808211156108ee575f80fd5b506108fb8582860161081c565b9150509250929050565b5f60208284031215610915575f80fd5b813567ffffffffffffffff81111561092b575f80fd5b6109378482850161081c565b949350505050565b634e487b7160e01b5f52603260045260245ffd5b600181811c9082168061096757607f821691505b60208210810361098557634e487b7160e01b5f52602260045260245ffd5b50919050565b601f8211156109d4575f81815260208120601f850160051c810160208610156109b15750805b601f850160051c820191505b818110156109d0578281556001016109bd565b5050505b505050565b815167ffffffffffffffff8111156109f3576109f3610808565b610a0781610a018454610953565b8461098b565b602080601f831160018114610a3a575f8415610a235750858301515b5f19600386901b1c1916600185901b1785556109d0565b5f85815260208120601f198616915b82811015610a6857888601518255948401946001909101908401610a49565b5085821015610a8557878501515f19600388901b60f8161c191681555b5050505050600190811b0190555056fea264697066735822122097a8dce0f1129f69039d14405a23a1eb417e42957021fb50cad83a43cf61aadd64736f6c63430008140033",
    "sourcePath": "/Users/minwoonam/Documents/github/hardhat/projects/wyzrs/Project/Wyzrstask/contract/Timesheet.sol",
    "compiler": {
        "name": "solc",
        "version": "0.8.20+commit.a1b79de6"
    },
    "functionHashes": {
        "addTimesheetWithAccount(string)": "ec825055",
        "addTimesheetWithWorkerName(string,string)": "7fb32127",
        "getTimesheet(uint256)": "5c2af4f2",
        "getTimesheetCount()": "f72f5c2a",
        "getTimesheetWithWorkerName(uint256)": "018e5c85",
        "getTimesheetWithWorkerNameCount()": "92e5ed33",
        "timesheets(uint256)": "2f576459",
        "timesheetsWithWorkerName(uint256)": "0fb188f9"
    },
    "gasEstimates": {
        "creation": {
            "codeDepositCost": "552600",
            "executionCost": "585",
            "totalCost": "553185"
        },
        "external": {
            "addTimesheetWithAccount(string)": "infinite",
            "addTimesheetWithWorkerName(string,string)": "infinite",
            "getTimesheet(uint256)": "infinite",
            "getTimesheetCount()": "2356",
            "getTimesheetWithWorkerName(uint256)": "infinite",
            "getTimesheetWithWorkerNameCount()": "2302",
            "timesheets(uint256)": "infinite",
            "timesheetsWithWorkerName(uint256)": "infinite"
        }
    }
}